S0140000534F545241544D45474131362E73726563B2
S11300000C942A000C9447000C9447000C9447006D
S11300100C9447000C9447000C9447000C94470040
S11300200C9447000C9487000C9447000C944700F0
S11300300C9447000C9447000C9447000C94470020
S11300400C9447000C9447000C9447000C94470010
S11300500C94470011241FBECFE5D4E0DEBFCDBF12
S113006010E0A0E6B0E0E4E6F2E002C005900D92F4
S1130070AC36B107D9F720E0ACE6B0E001C01D9280
S1130080A038B207E1F70E9469000C9430010C9487
S1130090000083E389B910BC86E880BD88E18AB991
S11300A008955D9BFECF8CB90895CF93DF93EC0147
S11300B08881882331F021960E9451008991811111
S11300C0FBCFDF91CF91089580E487B987E886B9A3
S11300D0089588EE82BF85E083BF81E089BF78946C
S11300E00E9449000E94640080E690E00E9455004E
S11300F08FEF84BB1ABAFFCF97B1987F8770892B93
S113010087B9369A3699FECF84B195B108951F9276
S11301100F920FB60F9211242F933F934F935F9337
S11301206F937F938F939F93AF93BF93EF93FF93BB
S113013095B388E0892785BB88EE82BF80916C00E7
S113014090916D00019690936D0080936C008230C5
S1130150910581F08330910531F1019781F5A89AD9
S113016085E690E00E947C0090936F0080936E007F
S1130170A89825C0A99A20916E0030916F004AE09A
S113018050E060E770E080E193E1FC012E9FC00144
S11301902F9F900D3E9F900D11240E94F00085B377
S11301A08C7F85BB0CC0AA9A87E690E00E9455001C
S11301B085B3887F85BB10926D0010926C00FF910F
S11301C0EF91BF91AF919F918F917F916F915F91CB
S11301D04F913F912F910F900FBE0F901F90189544
S11301E04532510520F4423010F00C94FB00FB0121
S11301F01082CB010895BB274A3031F4992322F4AD
S1130200BDE2909581959F4F0C940701BB27FB019C
S11302105527AA27880F991FAA1FA41710F0A41BFB
S113022083955051B9F7A05DAA3308F0A95DA19355
S1130230009779F7B111B1931192CB010C9420017D
S1130240DC01FC01672F71917723E1F7329704C039
S11302507C916D9370836291AE17BF07C8F30895C4
S1070260F894FFCF3C
S10F0264486F6C610030004144433A00D4
S9030000FC
